{"abi":[{"type":"constructor","inputs":[{"name":"implementation_","type":"address","internalType":"address"}],"stateMutability":"payable"},{"type":"function","name":"createAccount","inputs":[{"name":"owners","type":"bytes[]","internalType":"bytes[]"},{"name":"nonce","type":"uint256","internalType":"uint256"}],"outputs":[{"name":"account","type":"address","internalType":"contract ScrollSmartWallet"}],"stateMutability":"payable"},{"type":"function","name":"getAddress","inputs":[{"name":"owners","type":"bytes[]","internalType":"bytes[]"},{"name":"nonce","type":"uint256","internalType":"uint256"}],"outputs":[{"name":"","type":"address","internalType":"address"}],"stateMutability":"view"},{"type":"function","name":"implementation","inputs":[],"outputs":[{"name":"","type":"address","internalType":"address"}],"stateMutability":"view"},{"type":"function","name":"initCodeHash","inputs":[],"outputs":[{"name":"","type":"bytes32","internalType":"bytes32"}],"stateMutability":"view"},{"type":"error","name":"OwnerRequired","inputs":[]}],"bytecode":{"object":"0x60a06040526040516105b83803806105b88339810160408190526020916030565b6001600160a01b0316608052605b565b5f60208284031215603f575f80fd5b81516001600160a01b03811681146054575f80fd5b9392505050565b6080516105386100805f395f818160a201528181610134015261022901526105385ff3fe60806040526004361061003e575f3560e01c8063250b1b41146100425780633ffba36f1461007e5780635c60da1b14610091578063db4c545e146100c4575b5f80fd5b34801561004d575f80fd5b5061006161005c36600461039a565b6100e6565b6040516001600160a01b0390911681526020015b60405180910390f35b61006161008c36600461039a565b61010b565b34801561009c575f80fd5b506100617f000000000000000000000000000000000000000000000000000000000000000081565b3480156100cf575f80fd5b506100d86101d4565b604051908152602001610075565b5f6101036100f26101d4565b6100fd868686610268565b3061029d565b949350505050565b5f82810361012c57604051633c776be160e01b815260040160405180910390fd5b5f80610163347f000000000000000000000000000000000000000000000000000000000000000061015e898989610268565b6102bc565b91509150809250816101cb57604051633796f38760e11b81526001600160a01b03841690636f2de70e9061019d90899089906004016104cc565b5f604051808303815f87803b1580156101b4575f80fd5b505af11580156101c6573d5f803e3d5ffd5b505050505b50509392505050565b604080517fcc3735a920a3ca505d382bbc545af43d6000803e6038573d6000fd5b3d6000f360609081527f5155f3363d3d373d3d363d7f360894a13ba1a3210667c828492db98dca3e207683526160096020527f0000000000000000000000000000000000000000000000000000000000000000601e5268603d3d8160223d3973600a52605f602120919092525f90915290565b5f83838360405160200161027e939291906104df565b6040516020818303038152906040528051906020012090509392505050565b5f60ff5f5350603592835260601b60015260155260555f908120915290565b5f806040517fcc3735a920a3ca505d382bbc545af43d6000803e6038573d6000fd5b3d6000f36060527f5155f3363d3d373d3d363d7f360894a13ba1a3210667c828492db98dca3e207660405261600960205284601e5268603d3d8160223d3973600a52605f60212060358201523060581b815260ff8153836015820152605581209150813b6103665783605f602188f59150816103615763301164255f526004601cfd5b610389565b600192508515610389575f385f3889865af16103895763b12d13eb5f526004601cfd5b80604052505f606052935093915050565b5f805f604084860312156103ac575f80fd5b833567ffffffffffffffff8111156103c2575f80fd5b8401601f810186136103d2575f80fd5b803567ffffffffffffffff8111156103e8575f80fd5b8660208260051b84010111156103fc575f80fd5b6020918201979096509401359392505050565b81835281816020850137505f828201602090810191909152601f909101601f19169091010190565b5f8383855260208501945060208460051b820101835f5b868110156104c057838303601f19018852813536879003601e19018112610473575f80fd5b860160208101903567ffffffffffffffff81111561048f575f80fd5b80360382131561049d575f80fd5b6104a885828461040f565b60209a8b019a9095509390930192505060010161044e565b50909695505050505050565b602081525f610103602083018486610437565b604081525f6104f2604083018587610437565b905082602083015294935050505056fea2646970667358221220dd874e57f6b7ad29c344fa9cf07c3a3b4cb27a1c221d80257fcb027301059c0564736f6c634300081a0033","linkReferences":{}},"methodIdentifiers":{"createAccount(bytes[],uint256)":"3ffba36f","getAddress(bytes[],uint256)":"250b1b41","implementation()":"5c60da1b","initCodeHash()":"db4c545e"},"id":50}